:1000000012C0189518951895189518951895189563
:100010001895189518951895189518951895189578
:100020001895189518958FED8DBFC8EBE0EA4E2E08
:10003000DD275D2EA89584B7082E877F84BF88E1D1
:10004000992781BD91BDEEE7F0E0A0E6B0E08827FA
:100050008D933197E9F70E944B03662480E081BBC2
:100060008FEF87BB74B7777F74BF8EE181BD86E069
:1000700081BDBB9A81EA8FBD81E08EBDBB9ABC9ADF
:100080008FEF90E090934B0080934A008FEF90E0C9
:100090009093490080934800E0E0F0E0A0E193D322
:1000A000013081E008F080E08F93E0E0F0E0A0E133
:1000B0008AD3053080E010F009F081E09F91892B10
:1000C000882309F408C0E0E0F0E0A0E1BB2781E06C
:1000D0008C937BE767D3E0E0F0E0A0E674D381B5D2
:1000E000886081BD00916000013009F089C081E025
:1000F0008093610000916100093110F009F015C092
:10010000AAE40D911C910A501040802F912F9093DA
:100110004B0080934A006CD28AE090E02FD3A1E696
:100120008C918F5F8C9308F4E5CF8AE090E026D322
:100130005FD28AE090E022D35BD281E080936100BD
:1001400000916100093110F009F015C0AAE40D9189
:100150001C91065F1F4F802F912F90934B0080932F
:100160004A0046D28AE090E009D3A1E68C918F5FE5
:100170008C9308F4E5CF81E08093610000916100E9
:10018000093110F009F015C0A8E40D911C910A5036
:100190001040802F912F909349008093480028D2DF
:1001A0008AE090E0EBD2A1E68C918F5F8C9308F40B
:1001B000E5CF8AE090E0E2D21BD28AE090E0DED286
:1001C00017D281E08093610000916100093110F045
:1001D00009F015C0A8E40D911C91065F1F4F802FF8
:1001E000912F909349008093480002D28AE090E0DA
:1001F000C5D2A1E68C918F5F8C9308F4E5CFF5C151
:10020000023009F0A9C081E0809361000091610093
:10021000033010F009F038C080E090E090934B007C
:1002200080934A0081E08093630000916300033073
:1002300010F009F00AC08AE090E0A0D2D9D1A3E67C
:100240008C918F5F8C9308F4F0CF8FEF90E09093B8
:100250004B0080934A0081E080936300009163002B
:10026000053010F009F00AC08AE090E087D2C0D1D2
:10027000A3E68C918F5F8C9308F4F0CFA1E68C916C
:100280008F5F8C9308F4C2CF81E08093630000916C
:1002900063000E3110F009F00AC08AE090E06ED2DF
:1002A000A7D1A3E68C918F5F8C9308F4F0CF81E007
:1002B0008093610000916100033010F009F038C0B4
:1002C00080E090E0909349008093480081E0809323
:1002D000630000916300033010F009F00AC08AE067
:1002E00090E04CD285D1A3E68C918F5F8C9308F47B
:1002F000F0CF8FEF90E0909349008093480081E029
:100300008093630000916300053010F009F00AC08B
:100310008AE090E033D26CD1A3E68C918F5F8C930E
:1003200008F4F0CFA1E68C918F5F8C9308F4C2CFD4
:1003300081E080936300009163000E3110F009F0BA
:100340000AC08AE090E01AD253D1A3E68C918F5F65
:100350008C9308F4F0CF49C1033009F065C080E008
:1003600090E090934B0080934A0081E0809363007B
:1003700000916300053010F009F00AC08AE090E0B7
:10038000FDD136D1A3E68C918F5F8C9308F4F0CF2A
:100390008FEF90E090934B0080934A0081E0809330
:1003A0006300009163000A3010F009F00AC08AE08F
:1003B00090E0E4D11DD1A3E68C918F5F8C9308F47B
:1003C000F0CF80E090E0909349008093480081E076
:1003D0008093630000916300053010F009F00AC0BB
:1003E0008AE090E0CBD104D1A3E68C918F5F8C930F
:1003F00008F4F0CF8FEF90E090934900809348008D
:1004000081E080936300009163000E3110F009F0E9
:100410000AC08AE090E0B2D1EBD0A3E68C918F5F66
:100420008C9308F4F0CFE1C0043009F077C080E08D
:1004300090E090934B0080934A0081E080936300AA
:1004400000916300033010F009F00AC08AE090E0E8
:1004500095D1CED0A3E68C918F5F8C9308F4F0CF2A
:100460008FEF90E090934B0080934A0084E190E0FE
:100470008A939A9317D1A5E60C9381E08093630049
:100480004091650000916300041710F009F00AC064
:100490008AE090E073D1ACD0A3E68C918F5F8C930F
:1004A00008F4EECF80E090E09093490080934800FC
:1004B00081E08093630000916300033010F009F045
:1004C0000AC08AE090E05AD193D0A3E68C918F5F66
:1004D0008C9308F4F0CF8FEF90E0909349008093D5
:1004E000480084E190E08A939A93DCD0A5E60C93CF
:1004F00081E08093630040916500009163000417E0
:1005000010F009F00AC08AE090E038D171D0A3E67B
:100510008C918F5F8C9308F4EECF67C0053009F0A3
:1005200064C080E090E090934B0080934A0081E0AB
:100530008093630000916300033010F009F00AC05B
:100540008AE090E01BD154D0A3E68C918F5F8C930E
:1005500008F4F0CF8FEF90E090934B0080934A0027
:1005600081E08093630000916300083010F009F08F
:100570000AC08AE090E002D13BD0A3E68C918F5F65
:100580008C9308F4F0CF80E090E090934900809342
:10059000480081E08093630000916300033010F015
:1005A00009F00AC08AE090E0E9D022D0A3E68C915D
:1005B0008F5F8C9308F4F0CF8FEF90E09093490019
:1005C0008093480081E080936300009163000830CD
:1005D00010F009F00AC08AE090E0D0D009D0A3E67C
:1005E0008C918F5F8C9308F4F0CF7CCDF894FFCF83
:1005F000819B03C080E080936400A0E30C9101FB29
:1006000081E00EF480E08F9300916400003081E07F
:1006100009F080E09F918923882309F40CC081E0D0
:1006200080936400A0E68C918F5F8C93E0E0F0E013
:10063000A0E67BE7B7D0809916C0A6E625D0A6E64F
:100640000D911C91083552E0150714F009F001C016
:1006500009C080E090E0A6E68D939C93A0E68C9183
:100660008F5F8C9305C080E090E0A6E68D939C930D
:1006700000916000063009F003C081E080936000C3
:10068000A8950895F894FFCFED91FC91EF5FFF4F8F
:10069000FC93EE93089515E000E00093680010933A
:1006A0006900089540916800509169000DEF13E4CE
:1006B00049D00D5311460093680010936900599179
:1006C000499126D0089508D03DD000FC10D008955F
:1006D00003D01ED001F8F9CF0024E89457FF02C0E0
:1006E00009D0689400F80BD010F80124089502D0C6
:1006F00009D00895509540954F5F5F4F0895E89455
:1007000017FF0895009510950F5F1F4F6894089587
:10071000352F242FE894452B11F468940895512F18
:10072000402F0027112780E1440F551F001F111F84
:10073000021B130B416018F4020F131F4E7F8A95A2
:1007400099F70895752F642F55274427FF93F1E1FA
:10075000889405C010F4460F571F56954795179576
:100760000795FA95B9F7FF9108953197F1F7089534
:10077000689462F80895E89462F80895EF93FF93FF
:10078000EE27E82BE92B31F0E0EDF7E03197F1F7B8
:100790000197D1F7FF91EF910895E199FECFEEBB5C
:1007A0003196089591E001C092E07B3751F47FB714
:1007B000F894F3DF8D918DBBE29AE19A9A95C9F78F
:1007C0007FBF7727089591E001C092E0E6DFE09ACD
:0A07D0008DB38D939A95D1F708952B
:00000001FF
